{
  "contractName": "DataAuth",
  "abi": [
    {
      "constant": false,
      "inputs": [],
      "name": "renounceOwnership",
      "outputs": [],
      "payable": false,
      "stateMutability": "nonpayable",
      "type": "function",
      "signature": "0x715018a6"
    },
    {
      "constant": true,
      "inputs": [],
      "name": "owner",
      "outputs": [
        {
          "name": "",
          "type": "address"
        }
      ],
      "payable": false,
      "stateMutability": "view",
      "type": "function",
      "signature": "0x8da5cb5b"
    },
    {
      "constant": true,
      "inputs": [],
      "name": "isOwner",
      "outputs": [
        {
          "name": "",
          "type": "bool"
        }
      ],
      "payable": false,
      "stateMutability": "view",
      "type": "function",
      "signature": "0x8f32d59b"
    },
    {
      "constant": false,
      "inputs": [
        {
          "name": "newOwner",
          "type": "address"
        }
      ],
      "name": "transferOwnership",
      "outputs": [],
      "payable": false,
      "stateMutability": "nonpayable",
      "type": "function",
      "signature": "0xf2fde38b"
    },
    {
      "anonymous": false,
      "inputs": [
        {
          "indexed": true,
          "name": "lockId",
          "type": "bytes32"
        }
      ],
      "name": "NewUser",
      "type": "event",
      "signature": "0x0b359f4efbc50d2440bd4e2b304c6896768824a96dde51c585b6c2a9fcb1aec2"
    },
    {
      "anonymous": false,
      "inputs": [
        {
          "indexed": true,
          "name": "previousOwner",
          "type": "address"
        },
        {
          "indexed": true,
          "name": "newOwner",
          "type": "address"
        }
      ],
      "name": "OwnershipTransferred",
      "type": "event",
      "signature": "0x8be0079c531659141344cd1fd0a4f28419497f9722a3daafe3b4186f6b6457e0"
    },
    {
      "constant": true,
      "inputs": [
        {
          "name": "_lockId",
          "type": "bytes32"
        }
      ],
      "name": "getUser",
      "outputs": [
        {
          "name": "requester",
          "type": "address"
        },
        {
          "name": "userPubKey",
          "type": "address"
        },
        {
          "name": "username",
          "type": "bytes32"
        },
        {
          "name": "group",
          "type": "bytes32"
        },
        {
          "name": "databaseList",
          "type": "uint32[]"
        }
      ],
      "payable": false,
      "stateMutability": "view",
      "type": "function",
      "signature": "0x6517579c"
    }
  ],
  "bytecode": "0x6080604052336000806101000a81548173ffffffffffffffffffffffffffffffffffffffff021916908373ffffffffffffffffffffffffffffffffffffffff1602179055506000809054906101000a900473ffffffffffffffffffffffffffffffffffffffff1673ffffffffffffffffffffffffffffffffffffffff16600073ffffffffffffffffffffffffffffffffffffffff167f8be0079c531659141344cd1fd0a4f28419497f9722a3daafe3b4186f6b6457e060405160405180910390a36106d5806100cf6000396000f3fe60806040526004361061006d576000357c0100000000000000000000000000000000000000000000000000000000900463ffffffff1680636517579c14610072578063715018a6146101765780638da5cb5b1461018d5780638f32d59b146101e4578063f2fde38b14610213575b600080fd5b34801561007e57600080fd5b506100ab6004803603602081101561009557600080fd5b8101908080359060200190929190505050610264565b604051808673ffffffffffffffffffffffffffffffffffffffff1673ffffffffffffffffffffffffffffffffffffffff1681526020018573ffffffffffffffffffffffffffffffffffffffff1673ffffffffffffffffffffffffffffffffffffffff16815260200184815260200183815260200180602001828103825283818151815260200191508051906020019060200280838360005b8381101561015e578082015181840152602081019050610143565b50505050905001965050505050505060405180910390f35b34801561018257600080fd5b5061018b6103cf565b005b34801561019957600080fd5b506101a26104a1565b604051808273ffffffffffffffffffffffffffffffffffffffff1673ffffffffffffffffffffffffffffffffffffffff16815260200191505060405180910390f35b3480156101f057600080fd5b506101f96104ca565b604051808215151515815260200191505060405180910390f35b34801561021f57600080fd5b506102626004803603602081101561023657600080fd5b81019080803573ffffffffffffffffffffffffffffffffffffffff169060200190929190505050610521565b005b60008060008060606000151561027987610540565b151514156102ef576040517f08c379a00000000000000000000000000000000000000000000000000000000081526004018080602001828103825260168152602001807f6c6f636b20496420646f6573206e6f74206d617463680000000000000000000081525060200191505060405180910390fd5b6000600160008881526020019081526020016000209050338160000160009054906101000a900473ffffffffffffffffffffffffffffffffffffffff168260010154836002015484600301849450808054806020026020016040519081016040528092919081815260200182805480156103b457602002820191906000526020600020906000905b82829054906101000a900463ffffffff1663ffffffff16815260200190600401906020826003010492830192600103820291508084116103775790505b50505050509050955095509550955095505091939590929450565b6103d76104ca565b15156103e257600080fd5b600073ffffffffffffffffffffffffffffffffffffffff166000809054906101000a900473ffffffffffffffffffffffffffffffffffffffff1673ffffffffffffffffffffffffffffffffffffffff167f8be0079c531659141344cd1fd0a4f28419497f9722a3daafe3b4186f6b6457e060405160405180910390a360008060006101000a81548173ffffffffffffffffffffffffffffffffffffffff021916908373ffffffffffffffffffffffffffffffffffffffff160217905550565b60008060009054906101000a900473ffffffffffffffffffffffffffffffffffffffff16905090565b60008060009054906101000a900473ffffffffffffffffffffffffffffffffffffffff1673ffffffffffffffffffffffffffffffffffffffff163373ffffffffffffffffffffffffffffffffffffffff1614905090565b6105296104ca565b151561053457600080fd5b61053d816105af565b50565b60008073ffffffffffffffffffffffffffffffffffffffff166001600084815260200190815260200160002060000160009054906101000a900473ffffffffffffffffffffffffffffffffffffffff1673ffffffffffffffffffffffffffffffffffffffff1614159050919050565b600073ffffffffffffffffffffffffffffffffffffffff168173ffffffffffffffffffffffffffffffffffffffff16141515156105eb57600080fd5b8073ffffffffffffffffffffffffffffffffffffffff166000809054906101000a900473ffffffffffffffffffffffffffffffffffffffff1673ffffffffffffffffffffffffffffffffffffffff167f8be0079c531659141344cd1fd0a4f28419497f9722a3daafe3b4186f6b6457e060405160405180910390a3806000806101000a81548173ffffffffffffffffffffffffffffffffffffffff021916908373ffffffffffffffffffffffffffffffffffffffff1602179055505056fea165627a7a7230582063a0152b2b7deca70bc63223064b6d6e2ee74abd5045834534f16b955a3c3b4f0029",
  "source": "pragma solidity >=0.5.0;\nimport \"./Ownable.sol\";\n\ncontract DataAuth is Ownable{\n\n  event NewUser(\n    bytes32 indexed lockId\n  );\n\n\n  struct User {\n    address userPubKey;\n    bytes32 username;\n    bytes32 group;\n    uint32[] databaseList;\n  }\n\n  modifier user_exists(bytes32 _lockId) {\n    require(owns_user(_lockId), \"User does not exist\");\n    _;\n  }\n\n  mapping (bytes32 => User) users;\n\n  /*\n    Description: adds the new user and authorized group and databases\n\n    NOTE: This call is done by the administrator\n\n    params:\n    _username: name of user to add to database\n    _group: group associated with user (group association done off-chain)\n    _databaseList: list of databases the user wants to have access to\n\n    returns:\n    lockId: abi.encode(sha256) hash of the parameters\n   */\n\n   function createUser(address _userPubKey, bytes32 _username, bytes32 _group, uint32[] storage _databaseList) private onlyOwner returns (bytes32 lockId){\n\n      lockId = sha256(abi.encodePacked(\n        _userPubKey,\n        _username,\n        _group,\n        _databaseList\n        )\n      );\n\n      // reject if the user already exists\n      if(owns_user(lockId)){\n        revert(\"lockId already exists\");\n      }\n\n      users[lockId] = User(\n        _userPubKey,\n        _username,\n        _group,\n        _databaseList\n      );\n\n      emit NewUser(lockId);\n\n   }\n\n   /*\n     Description: get the user associated with the lockId\n\n     NOTE: This call can be made by both the administrator and the user\n\n     params:\n     _lockId: indexed lockId created at createUser. Referenced mapping to user\n    */\n\n    function getUser(bytes32 _lockId) public view returns (address requester, address userPubKey ,bytes32 username, bytes32 group, uint32[] memory databaseList){\n        if (owns_user(_lockId) == false)\n          revert(\"lock Id does not match\");\n        User storage c = users[_lockId];\n        return (\n            msg.sender,\n            c.userPubKey,\n            c.username,\n            c.group,\n            c.databaseList\n        );\n    }\n\n    /*\n      Description: edits user credentials and group information\n      - If the input is 0 or null no change will be made, else make a change\n\n      NOTE: This call can only be made by the administrator\n\n      params:\n      _lockId: indexed lockId created at createUser. Referenced mapping to user\n      _username: name of user to change on database\n      _group: group associated with user (group association done off-chain) to change\n      _databaseList: list of databases the user wants to have access to, having no input means there should be no change\n     */\n     function editUser(bytes32 _lockId, bytes32 _username, bytes32 _group, uint32[] storage _databaseList) private user_exists(_lockId) onlyOwner returns (bool){\n\n        if (owns_user(_lockId) == false)\n          revert(\"lock Id does not match\");\n\n        User storage c = users[_lockId];\n\n        if (_username != \"null\"){\n          c.username = _username;\n        }\n\n        if (_group != \"null\"){\n          c.group = _group;\n        }\n\n        //checks the length of the database\n        if (_databaseList.length > 0){\n          c.databaseList = _databaseList;\n        }\n\n        return true;\n\n     }\n\n\n     /*\n       Description: removes user from databases and groups\n\n       NOTE: This call can only be made by the administrator\n\n       params:\n       _lockId: indexed lockId created at createUser. Referenced mapping to user\n      */\n      function deleteUser(bytes32 _lockId) private user_exists(_lockId) onlyOwner returns (bool) {\n\n        if (owns_user(_lockId) == false)\n          revert(\"lock Id does not match\");\n\n        delete users[_lockId];\n\n        return true;\n      }\n\n\n      /*\n        Check if there is a lockId with id _lockId.\n        _lockId: Id into contracts mapping.\n      */\n      function owns_user(bytes32 _lockId) internal view returns (bool exists)\n      {\n          exists = (users[_lockId].userPubKey != address(0));\n      }\n\n\n}\n",
  "sourcePath": "/Users/dohyunshin/Projects/SolidityProjects/DataAuth/smart_contracts/contracts/DataAuth.sol",
  "compiler": {
    "name": "solc",
    "version": "0.5.0+commit.1d4f565a.Emscripten.clang"
  },
  "schemaVersion": "3.0.1",
  "updatedAt": "2019-02-25T16:08:16.957Z",
  "devdoc": {
    "methods": {
      "isOwner()": {
        "return": "true if `msg.sender` is the owner of the contract."
      },
      "owner()": {
        "return": "the address of the owner."
      },
      "renounceOwnership()": {
        "details": "Allows the current owner to relinquish control of the contract."
      },
      "transferOwnership(address)": {
        "details": "Allows the current owner to transfer control of the contract to a newOwner.",
        "params": {
          "newOwner": "The address to transfer ownership to."
        }
      }
    }
  },
  "userdoc": {
    "methods": {
      "renounceOwnership()": {
        "notice": "Renouncing to ownership will leave the contract without an owner. It will not be possible to call the functions with the `onlyOwner` modifier anymore."
      }
    }
  }
}