{
  "contractName": "DataAuth",
  "abi": [
    {
      "constant": false,
      "inputs": [],
      "name": "renounceOwnership",
      "outputs": [],
      "payable": false,
      "stateMutability": "nonpayable",
      "type": "function"
    },
    {
      "constant": true,
      "inputs": [],
      "name": "owner",
      "outputs": [
        {
          "name": "",
          "type": "address"
        }
      ],
      "payable": false,
      "stateMutability": "view",
      "type": "function"
    },
    {
      "constant": true,
      "inputs": [],
      "name": "isOwner",
      "outputs": [
        {
          "name": "",
          "type": "bool"
        }
      ],
      "payable": false,
      "stateMutability": "view",
      "type": "function"
    },
    {
      "constant": false,
      "inputs": [
        {
          "name": "newOwner",
          "type": "address"
        }
      ],
      "name": "transferOwnership",
      "outputs": [],
      "payable": false,
      "stateMutability": "nonpayable",
      "type": "function"
    },
    {
      "anonymous": false,
      "inputs": [
        {
          "indexed": true,
          "name": "lockId",
          "type": "bytes32"
        }
      ],
      "name": "NewUser",
      "type": "event"
    },
    {
      "anonymous": false,
      "inputs": [
        {
          "indexed": true,
          "name": "previousOwner",
          "type": "address"
        },
        {
          "indexed": true,
          "name": "newOwner",
          "type": "address"
        }
      ],
      "name": "OwnershipTransferred",
      "type": "event"
    },
    {
      "constant": false,
      "inputs": [
        {
          "name": "_userAddress",
          "type": "address"
        },
        {
          "name": "_username",
          "type": "string"
        },
        {
          "name": "_group",
          "type": "string"
        },
        {
          "name": "_databaseList",
          "type": "uint32[]"
        }
      ],
      "name": "createUser",
      "outputs": [
        {
          "name": "lockId",
          "type": "bytes32"
        }
      ],
      "payable": false,
      "stateMutability": "nonpayable",
      "type": "function"
    },
    {
      "constant": true,
      "inputs": [
        {
          "name": "_lockId",
          "type": "bytes32"
        }
      ],
      "name": "getUser",
      "outputs": [
        {
          "name": "requester",
          "type": "address"
        },
        {
          "name": "userAddress",
          "type": "address"
        },
        {
          "name": "username",
          "type": "string"
        },
        {
          "name": "group",
          "type": "string"
        },
        {
          "name": "databaseList",
          "type": "uint32[]"
        }
      ],
      "payable": false,
      "stateMutability": "view",
      "type": "function"
    },
    {
      "constant": false,
      "inputs": [
        {
          "name": "_lockId",
          "type": "bytes32"
        },
        {
          "name": "_username",
          "type": "string"
        },
        {
          "name": "_group",
          "type": "string"
        },
        {
          "name": "_databaseList",
          "type": "uint32[]"
        }
      ],
      "name": "editUser",
      "outputs": [
        {
          "name": "",
          "type": "bool"
        }
      ],
      "payable": false,
      "stateMutability": "nonpayable",
      "type": "function"
    },
    {
      "constant": false,
      "inputs": [
        {
          "name": "_lockId",
          "type": "bytes32"
        }
      ],
      "name": "deleteUser",
      "outputs": [
        {
          "name": "",
          "type": "bool"
        }
      ],
      "payable": false,
      "stateMutability": "nonpayable",
      "type": "function"
    },
    {
      "constant": true,
      "inputs": [
        {
          "name": "_lockId",
          "type": "bytes32"
        }
      ],
      "name": "owns_user",
      "outputs": [
        {
          "name": "exists",
          "type": "bool"
        }
      ],
      "payable": false,
      "stateMutability": "view",
      "type": "function"
    }
  ],
  "bytecode": "0x6080604052336000806101000a81548173ffffffffffffffffffffffffffffffffffffffff021916908373ffffffffffffffffffffffffffffffffffffffff1602179055506000809054906101000a900473ffffffffffffffffffffffffffffffffffffffff1673ffffffffffffffffffffffffffffffffffffffff16600073ffffffffffffffffffffffffffffffffffffffff167f8be0079c531659141344cd1fd0a4f28419497f9722a3daafe3b4186f6b6457e060405160405180910390a361194f806100cf6000396000f3fe608060405260043610610099576000357c0100000000000000000000000000000000000000000000000000000000900463ffffffff1680635706f76c1461009e5780635e5d4320146102c55780636517579c14610318578063715018a6146104e65780638da5cb5b146104fd5780638f32d59b1461055457806399d24f5314610583578063b2f28755146105d6578063f2fde38b146107eb575b600080fd5b3480156100aa57600080fd5b506102af600480360360808110156100c157600080fd5b81019080803573ffffffffffffffffffffffffffffffffffffffff169060200190929190803590602001906401000000008111156100fe57600080fd5b82018360208201111561011057600080fd5b8035906020019184600183028401116401000000008311171561013257600080fd5b91908080601f016020809104026020016040519081016040528093929190818152602001838380828437600081840152601f19601f8201169050808301925050505050505091929192908035906020019064010000000081111561019557600080fd5b8201836020820111156101a757600080fd5b803590602001918460018302840111640100000000831117156101c957600080fd5b91908080601f016020809104026020016040519081016040528093929190818152602001838380828437600081840152601f19601f8201169050808301925050505050505091929192908035906020019064010000000081111561022c57600080fd5b82018360208201111561023e57600080fd5b8035906020019184602083028401116401000000008311171561026057600080fd5b919080806020026020016040519081016040528093929190818152602001838360200280828437600081840152601f19601f82011690508083019250505050505050919291929050505061083c565b6040518082815260200191505060405180910390f35b3480156102d157600080fd5b506102fe600480360360208110156102e857600080fd5b8101908080359060200190929190505050610bfe565b604051808215151515815260200191505060405180910390f35b34801561032457600080fd5b506103516004803603602081101561033b57600080fd5b8101908080359060200190929190505050610d8b565b604051808673ffffffffffffffffffffffffffffffffffffffff1673ffffffffffffffffffffffffffffffffffffffff1681526020018573ffffffffffffffffffffffffffffffffffffffff1673ffffffffffffffffffffffffffffffffffffffff168152602001806020018060200180602001848103845287818151815260200191508051906020019080838360005b838110156103fd5780820151818401526020810190506103e2565b50505050905090810190601f16801561042a5780820380516001836020036101000a031916815260200191505b50848103835286818151815260200191508051906020019080838360005b83811015610463578082015181840152602081019050610448565b50505050905090810190601f1680156104905780820380516001836020036101000a031916815260200191505b50848103825285818151815260200191508051906020019060200280838360005b838110156104cc5780820151818401526020810190506104b1565b505050509050019850505050505050505060405180910390f35b3480156104f257600080fd5b506104fb61102c565b005b34801561050957600080fd5b506105126110fe565b604051808273ffffffffffffffffffffffffffffffffffffffff1673ffffffffffffffffffffffffffffffffffffffff16815260200191505060405180910390f35b34801561056057600080fd5b50610569611127565b604051808215151515815260200191505060405180910390f35b34801561058f57600080fd5b506105bc600480360360208110156105a657600080fd5b810190808035906020019092919050505061117e565b604051808215151515815260200191505060405180910390f35b3480156105e257600080fd5b506107d1600480360360808110156105f957600080fd5b81019080803590602001909291908035906020019064010000000081111561062057600080fd5b82018360208201111561063257600080fd5b8035906020019184600183028401116401000000008311171561065457600080fd5b91908080601f016020809104026020016040519081016040528093929190818152602001838380828437600081840152601f19601f820116905080830192505050505050509192919290803590602001906401000000008111156106b757600080fd5b8201836020820111156106c957600080fd5b803590602001918460018302840111640100000000831117156106eb57600080fd5b91908080601f016020809104026020016040519081016040528093929190818152602001838380828437600081840152601f19601f8201169050808301925050505050505091929192908035906020019064010000000081111561074e57600080fd5b82018360208201111561076057600080fd5b8035906020019184602083028401116401000000008311171561078257600080fd5b919080806020026020016040519081016040528093929190818152602001838360200280828437600081840152601f19601f8201169050808301925050505050505091929192905050506111ed565b604051808215151515815260200191505060405180910390f35b3480156107f757600080fd5b5061083a6004803603602081101561080e57600080fd5b81019080803573ffffffffffffffffffffffffffffffffffffffff1690602001909291905050506114e2565b005b6000610846611127565b151561085157600080fd5b600285858585604051602001808573ffffffffffffffffffffffffffffffffffffffff1673ffffffffffffffffffffffffffffffffffffffff168152602001806020018060200180602001848103845287818151815260200191508051906020019080838360005b838110156108d45780820151818401526020810190506108b9565b50505050905090810190601f1680156109015780820380516001836020036101000a031916815260200191505b50848103835286818151815260200191508051906020019080838360005b8381101561093a57808201518184015260208101905061091f565b50505050905090810190601f1680156109675780820380516001836020036101000a031916815260200191505b50848103825285818151815260200191508051906020019060200280838360005b838110156109a3578082015181840152602081019050610988565b505050509050019750505050505050506040516020818303038152906040526040518082805190602001908083835b6020831015156109f757805182526020820191506020810190506020830392506109d2565b6001836020036101000a038019825116818451168082178552505050505050905001915050602060405180830381855afa158015610a39573d6000803e3d6000fd5b5050506040513d6020811015610a4e57600080fd5b81019080805190602001909291905050509050610a6a8161117e565b15610add576040517f08c379a00000000000000000000000000000000000000000000000000000000081526004018080602001828103825260158152602001807f6c6f636b496420616c726561647920657869737473000000000000000000000081525060200191505060405180910390fd5b6080604051908101604052808673ffffffffffffffffffffffffffffffffffffffff168152602001858152602001848152602001838152506001600083815260200190815260200160002060008201518160000160006101000a81548173ffffffffffffffffffffffffffffffffffffffff021916908373ffffffffffffffffffffffffffffffffffffffff1602179055506020820151816001019080519060200190610b8b9291906115fb565b506040820151816002019080519060200190610ba89291906115fb565b506060820151816003019080519060200190610bc592919061167b565b50905050807f0b359f4efbc50d2440bd4e2b304c6896768824a96dde51c585b6c2a9fcb1aec260405160405180910390a2949350505050565b600081610c0a8161117e565b1515610c7e576040517f08c379a00000000000000000000000000000000000000000000000000000000081526004018080602001828103825260138152602001807f5573657220646f6573206e6f742065786973740000000000000000000000000081525060200191505060405180910390fd5b610c86611127565b1515610c9157600080fd5b60001515610c9e8461117e565b15151415610d14576040517f08c379a00000000000000000000000000000000000000000000000000000000081526004018080602001828103825260168152602001807f6c6f636b20496420646f6573206e6f74206d617463680000000000000000000081525060200191505060405180910390fd5b60016000848152602001908152602001600020600080820160006101000a81549073ffffffffffffffffffffffffffffffffffffffff0219169055600182016000610d5f919061172b565b600282016000610d6f919061172b565b600382016000610d7f9190611773565b50506001915050919050565b600080606080606060001515610da08761117e565b15151415610e16576040517f08c379a00000000000000000000000000000000000000000000000000000000081526004018080602001828103825260168152602001807f6c6f636b20496420646f6573206e6f74206d617463680000000000000000000081525060200191505060405180910390fd5b6000600160008881526020019081526020016000209050338160000160009054906101000a900473ffffffffffffffffffffffffffffffffffffffff16826001018360020184600301849450828054600181600116156101000203166002900480601f016020809104026020016040519081016040528092919081815260200182805460018160011615610100020316600290048015610ef75780601f10610ecc57610100808354040283529160200191610ef7565b820191906000526020600020905b815481529060010190602001808311610eda57829003601f168201915b50505050509250818054600181600116156101000203166002900480601f016020809104026020016040519081016040528092919081815260200182805460018160011615610100020316600290048015610f935780601f10610f6857610100808354040283529160200191610f93565b820191906000526020600020905b815481529060010190602001808311610f7657829003601f168201915b505050505091508080548060200260200160405190810160405280929190818152602001828054801561101157602002820191906000526020600020906000905b82829054906101000a900463ffffffff1663ffffffff1681526020019060040190602082600301049283019260010382029150808411610fd45790505b50505050509050955095509550955095505091939590929450565b611034611127565b151561103f57600080fd5b600073ffffffffffffffffffffffffffffffffffffffff166000809054906101000a900473ffffffffffffffffffffffffffffffffffffffff1673ffffffffffffffffffffffffffffffffffffffff167f8be0079c531659141344cd1fd0a4f28419497f9722a3daafe3b4186f6b6457e060405160405180910390a360008060006101000a81548173ffffffffffffffffffffffffffffffffffffffff021916908373ffffffffffffffffffffffffffffffffffffffff160217905550565b60008060009054906101000a900473ffffffffffffffffffffffffffffffffffffffff16905090565b60008060009054906101000a900473ffffffffffffffffffffffffffffffffffffffff1673ffffffffffffffffffffffffffffffffffffffff163373ffffffffffffffffffffffffffffffffffffffff1614905090565b60008073ffffffffffffffffffffffffffffffffffffffff166001600084815260200190815260200160002060000160009054906101000a900473ffffffffffffffffffffffffffffffffffffffff1673ffffffffffffffffffffffffffffffffffffffff1614159050919050565b6000846111f98161117e565b151561126d576040517f08c379a00000000000000000000000000000000000000000000000000000000081526004018080602001828103825260138152602001807f5573657220646f6573206e6f742065786973740000000000000000000000000081525060200191505060405180910390fd5b611275611127565b151561128057600080fd5b6000151561128d8761117e565b15151415611303576040517f08c379a00000000000000000000000000000000000000000000000000000000081526004018080602001828103825260168152602001807f6c6f636b20496420646f6573206e6f74206d617463680000000000000000000081525060200191505060405180910390fd5b600060016000888152602001908152602001600020905060405180807f6e756c6c0000000000000000000000000000000000000000000000000000000081525060040190506040518091039020866040516020018082805190602001908083835b6020831015156113895780518252602082019150602081019050602083039250611364565b6001836020036101000a038019825116818451168082178552505050505050905001915050604051602081830303815290604052805190602001201415156113e557858160010190805190602001906113e392919061179b565b505b60405180807f6e756c6c0000000000000000000000000000000000000000000000000000000081525060040190506040518091039020856040516020018082805190602001908083835b602083101515611454578051825260208201915060208101905060208303925061142f565b6001836020036101000a038019825116818451168082178552505050505050905001915050604051602081830303815290604052805190602001201415156114b057848160020190805190602001906114ae92919061179b565b505b6000845111156114d457838160030190805190602001906114d292919061181b565b505b600192505050949350505050565b6114ea611127565b15156114f557600080fd5b6114fe81611501565b50565b600073ffffffffffffffffffffffffffffffffffffffff168173ffffffffffffffffffffffffffffffffffffffff161415151561153d57600080fd5b8073ffffffffffffffffffffffffffffffffffffffff166000809054906101000a900473ffffffffffffffffffffffffffffffffffffffff1673ffffffffffffffffffffffffffffffffffffffff167f8be0079c531659141344cd1fd0a4f28419497f9722a3daafe3b4186f6b6457e060405160405180910390a3806000806101000a81548173ffffffffffffffffffffffffffffffffffffffff021916908373ffffffffffffffffffffffffffffffffffffffff16021790555050565b828054600181600116156101000203166002900490600052602060002090601f016020900481019282601f1061163c57805160ff191683800117855561166a565b8280016001018555821561166a579182015b8281111561166957825182559160200191906001019061164e565b5b50905061167791906118cb565b5090565b8280548282559060005260206000209060070160089004810192821561171a5791602002820160005b838211156116e857835183826101000a81548163ffffffff021916908363ffffffff16021790555092602001926004016020816003010492830192600103026116a4565b80156117185782816101000a81549063ffffffff02191690556004016020816003010492830192600103026116e8565b505b50905061172791906118f0565b5090565b50805460018160011615610100020316600290046000825580601f106117515750611770565b601f01602090049060005260206000209081019061176f91906118cb565b5b50565b50805460008255600701600890049060005260206000209081019061179891906118cb565b50565b828054600181600116156101000203166002900490600052602060002090601f016020900481019282601f106117dc57805160ff191683800117855561180a565b8280016001018555821561180a579182015b828111156118095782518255916020019190600101906117ee565b5b50905061181791906118cb565b5090565b828054828255906000526020600020906007016008900481019282156118ba5791602002820160005b8382111561188857835183826101000a81548163ffffffff021916908363ffffffff1602179055509260200192600401602081600301049283019260010302611844565b80156118b85782816101000a81549063ffffffff0219169055600401602081600301049283019260010302611888565b505b5090506118c791906118f0565b5090565b6118ed91905b808211156118e95760008160009055506001016118d1565b5090565b90565b61192091905b8082111561191c57600081816101000a81549063ffffffff0219169055506001016118f6565b5090565b9056fea165627a7a72305820f94cb0c19ec0a58a1115909abd4fdc803d2fe88ba631060b25b3ccb582c41e420029",
  "source": "pragma solidity >=0.5.0;\nimport \"./Ownable.sol\";\n\ncontract DataAuth is Ownable{\n\n\n    event NewUser(\n        bytes32 indexed lockId\n    );\n\n\n    struct User {\n        address userAddress;\n        string username;\n        string group;\n        uint32[] databaseList;\n    }\n\n    modifier user_exists(bytes32 _lockId) {\n        require(owns_user(_lockId), \"User does not exist\");\n        _;\n    }\n\n    mapping (bytes32 => User) users;\n\n  /*\n    Description: adds the new user and authorized group and databases\n\n    NOTE: This call is done by the administrator\n\n    params:\n    _userAddress: the public address of the user\n    _username: name of user to add to database\n    _group: group associated with user (group association done off-chain)\n    _databaseList: list of databases the user wants to have access to\n\n    returns:\n    lockId: abi.encode(sha256) hash of the parameters\n   */\n\n    function createUser(address _userAddress, string memory _username, string memory _group, uint32[] memory _databaseList) public onlyOwner returns (bytes32 lockId){\n\n      //owner need to check for duplicates\n        lockId = sha256(abi.encode(\n            _userAddress,\n            _username,\n            _group,\n            _databaseList\n            )\n        );\n\n        // reject if the user already exists\n        if(owns_user(lockId)){\n            revert(\"lockId already exists\");\n        }\n\n        users[lockId] = User(\n            _userAddress,\n            _username,\n            _group,\n            _databaseList\n        );\n\n        emit NewUser(lockId);\n    }\n\n    /*\n     Description: get the user associated with the lockId\n\n     NOTE: This call can be made by both the administrator and the user\n\n     params:\n     _lockId: indexed lockId created at createUser. Referenced mapping to user\n\n     return:\n     - requester: admin address of who requested information\n     - userPubKey: public key of the user\n     - username: username of the user\n     - group: group association\n     - databaseList: authorized database list (specified in numbers)\n    */\n    function getUser(bytes32 _lockId) public view returns (address requester, address userAddress ,string memory username, string memory group, uint32[] memory databaseList){\n        if (owns_user(_lockId) == false)\n          revert(\"lock Id does not match\");\n        User storage c = users[_lockId];\n        return (\n            msg.sender,\n            c.userAddress,\n            c.username,\n            c.group,\n            c.databaseList\n        );\n    }\n\n    /*\n      Description: edits user credentials and group information\n      - If the input is 0 or null no change will be made, else make a change\n\n      NOTE: This call can only be made by the administrator\n\n      params:\n      _lockId: indexed lockId created at createUser. Referenced mapping to user\n      _username: name of user to change on database\n      _group: group associated with user (group association done off-chain) to change\n      _databaseList: list of databases the user wants to have access to, having no input means there should be no change\n\n      returns:\n      boolean: true if success, else reverts\n     */\n    function editUser(bytes32 _lockId, string memory _username, string memory _group, uint32[] memory _databaseList) public user_exists(_lockId) onlyOwner returns (bool){\n\n        if (owns_user(_lockId) == false)\n            revert(\"lock Id does not match\");\n\n        User storage c = users[_lockId];\n\n        if (keccak256(abi.encodePacked(_username)) != keccak256(\"null\")){\n            c.username = _username;\n        }\n\n        if (keccak256(abi.encodePacked(_group)) != keccak256(\"null\")){\n            c.group = _group;\n        }\n\n        //checks the length of the database\n        if (_databaseList.length > 0){\n            c.databaseList = _databaseList;\n        }\n\n        return true;\n\n    }\n\n\n     /*\n       Description: removes user from databases and groups\n\n       NOTE: This call can only be made by the administrator\n\n       params:\n       _lockId: indexed lockId created at createUser. Referenced mapping to user\n\n       returns:\n       boolean: true if success\n      */\n    function deleteUser(bytes32 _lockId) public user_exists(_lockId) onlyOwner returns (bool) {\n\n        if (owns_user(_lockId) == false)\n            revert(\"lock Id does not match\");\n\n        //for now haven't found a way to resize and find index of the array\n        delete users[_lockId];\n\n        return true;\n    }\n\n\n    /*\n        Check if there is a lockId with id _lockId.\n        parmas: _lockId: Id into contracts mapping.\n        returns: boolean, true if success\n    */\n    function owns_user(bytes32 _lockId) public view returns (bool exists){\n        exists = (users[_lockId].userAddress != address(0));\n    }\n\n\n\n}\n",
  "sourcePath": "/Users/dohyunshin/Projects/SolidityProjects/DataAuth/smart_contracts/contracts/DataAuth.sol",
  "compiler": {
    "name": "solc",
    "version": "0.5.0+commit.1d4f565a.Emscripten.clang"
  },
  "schemaVersion": "3.0.1",
  "updatedAt": "2019-03-29T19:03:39.796Z",
  "devdoc": {
    "methods": {
      "isOwner()": {
        "return": "true if `msg.sender` is the owner of the contract."
      },
      "owner()": {
        "return": "the address of the owner."
      },
      "renounceOwnership()": {
        "details": "Allows the current owner to relinquish control of the contract."
      },
      "transferOwnership(address)": {
        "details": "Allows the current owner to transfer control of the contract to a newOwner.",
        "params": {
          "newOwner": "The address to transfer ownership to."
        }
      }
    }
  },
  "userdoc": {
    "methods": {
      "renounceOwnership()": {
        "notice": "Renouncing to ownership will leave the contract without an owner. It will not be possible to call the functions with the `onlyOwner` modifier anymore."
      }
    }
  }
}